:100000000C94B6000C94CB000C94CB000C94CB0059
:100010000C94CB000C94CB000C94CB000C94CB0034
:100020000C94CB000C94CB000C94CB000C94CB0024
:100030000C94CB000C94CB000C94CB000C94CB0014
:100040000C94CB000C94CB000C94CB000C94CB0004
:100050000C94CB0005A84CCDB2D44EB93836A902C9
:100060000C50B9918688083CA6AAAA2ABE000000B6
:10007000803F00407A10F35A00A0724E1809001019
:10008000A5D4E80000E87648170000E40B5402000D
:1000900000CA9A3B000000E1F50500008096980038
:1000A000000040420F000000A08601000000102761
:1000B00000000000E80300000000640000000000F1
:1000C0000A00000000000100000000002C76D88823
:1000D000DC674F0823DFC1DFAE59E1B1B796E5E336
:1000E000E453C63AE651997696E8E6C28426EB894F
:1000F0008C9B62ED407C6FFCEFBC9C9F40F2BAA5EC
:100100006FA5F490055A2AF75C936B6CF9676DC183
:100110001BFCE0E40D47FEF520E6B500D0ED902E87
:100120000300943577050080841E080000204E0AE5
:10013000000000C80C333333330F986E1283114123
:10014000EF8D2114893BE65516CFFEE6DB18D184EE
:100150004B381BF77C1D901DA4BBE4242032847215
:100160005E228100C9F124ECA1E53D2711241FBEC8
:10017000CFE5D8E0DEBFCDBF10E0A0E6B0E0E2E41E
:10018000F4E102C005900D92AC36B107D9F70E9498
:10019000D3000C941F0A0C940000869B02C0969812
:1001A0000895969A0895EF92FF920F931F9380E817
:1001B00095E20E94140180E481BBEE24FF2400E05C
:1001C00010E06E2D7F2D802F912F42E050E021E036
:1001D00030E00E94950180E690E00E9446016E2D7D
:1001E0007F2D802F912F0E94350644E050E023E0C0
:1001F00030E00E94950182E690E00E9446010E9454
:10020000CD0087EA91E60197F1F700C000006E2D5E
:100210007F2D802F912F2DEC3CEC4CEC5DE30E9468
:10022000EE037B018C01CDCF9C0140E050E084E0E7
:10023000220F331F441F551F8A95D1F760E072E1EA
:100240008AE790E00E9483052150304030BD29B9F3
:1002500080B5866880BD88E18AB908958BB1881F12
:100260008827881F08955F9BFECF8CB10895CF9398
:10027000DF93EC010E94330189938823D9F7DF9142
:10028000CF9108955D9BFECF8CB90895EF92FF92B8
:10029000CF93DF93E82EE7017E01F92EE70102C03C
:1002A0000E94420189918823D9F70E944201DF917F
:1002B000CF91FF90EF900895EF92FF920F931F93CD
:1002C000DF93CF93CDB7DEB760970FB6F894DEBF5C
:1002D0000FBECDBF7B018E010F5F1F4FB8014AE0FB
:1002E00050E00E94FE05F8018E2F801B919199230A
:1002F000D9F7082F04C080E20E9442010F5F802FCF
:1003000090E08E159F05BCF3CE0101960E94460138
:1003100060960FB6F894DEBF0FBECDBFCF91DF91D0
:100320001F910F91FF90EF900895EF92FF920F931E
:100330001F93DF93CF93CDB7DEB760970FB6F894D6
:10034000DEBF0FBECDBF7E010894E11CF11C87010A
:100350000E94DC05C7010E94460160960FB6F89422
:10036000DEBF0FBECDBFCF91DF911F910F91FF90E8
:10037000EF900895EF92FF920F931F93DF93CF9327
:10038000CDB7DEB760970FB6F894DEBF0FBECDBF16
:100390007B018E010F5F1F4FB8014AE050E00E94C1
:1003A0001F06F8018E2F801B91919923D9F7082FF2
:1003B00004C080E20E9442010F5F802F90E08E1502
:1003C0009F05BCF3CE0101960E94460160960FB6D0
:1003D000F894DEBF0FBECDBFCF91DF911F910F917B
:1003E000FF90EF900895EF92FF920F931F93DF938A
:1003F000CF93CDB7DEB760970FB6F894DEBF0FBED0
:10040000CDBF7B018E010F5F1F4FB8014AE050E066
:100410000E941F06F8018E2F801B91919923D9F716
:10042000082F04C080E30E9442010F5F802F90E0FC
:100430008E159F05BCF3CE0101960E944601609681
:100440000FB6F894DEBF0FBECDBFCF91DF911F91E5
:100450000F91FF90EF900895EF92FF920F931F93EB
:10046000DF93CF93CDB7DEB761970FB6F894DEBFB9
:100470000FBECDBF7B018E010F5F1F4FB80140E162
:1004800050E00E941F06F8018E2F801B9191992346
:10049000D9F7082F04C080E20E9442010F5F802F2D
:1004A00090E08E159F05BCF3CE0101960E94460197
:1004B00061960FB6F894DEBF0FBECDBFCF91DF912E
:1004C0001F910F91FF90EF900895EF92FF920F937D
:1004D0001F93DF93CF93CDB7DEB761970FB6F89434
:1004E000DEBF0FBECDBF7B018E010F5F1F4FB80176
:1004F00042E050E00E941F06F8018E2F801B919170
:100500009923D9F7082F04C080E30E9442010F5FAE
:10051000802F90E08E159F05BCF3CE0101960E94BE
:10052000460161960FB6F894DEBF0FBECDBFCF91E6
:10053000DF911F910F91FF90EF90089590E068E098
:1005400070E00E9465020895A0E0B0E0EAEAF2E0FF
:100550000C94A905FC01EA018081823008F438C1BD
:10056000DB019C91923008F430C1843059F494300E
:1005700009F02EC1918111968C911197981709F06D
:1005800021C126C1943009F420C19230B1F48230E7
:1005900009F01EC1CA01AF0128E0DA010D90AD01DA
:1005A000DC010D92CD012150C1F7DB0111968C9138
:1005B00011979181892389830AC1823009F405C189
:1005C000C280D380DB0112966D907C9013972481BA
:1005D0003581468157811496ED90FD900D911C91C7
:1005E0001797C601861997095C0197FF04C0AA24D2
:1005F000BB24A81AB90AB0E2AB16B1040CF061C072
:10060000181619066CF5370148010A2C04C0969497
:100610008794779467940A94D2F781E090E0A0E001
:10062000B0E00A2C04C0880F991FAA1FBB1F0A94B0
:10063000D2F70197A109B1098E219F21A023B123EF
:10064000EE24FF248701E3940097A105B10519F476
:10065000EE24FF248701E628F728082919293CC041
:100660000097D1F1CA0CDB1C39014A010A2C04C0E5
:1006700096948794779467940A94D2F781E090E0F7
:10068000A0E0B0E00A2C04C0880F991FAA1FBB1F6E
:100690000A94D2F70197A109B10982239323A423D5
:1006A000B52321E030E040E050E00097A105B1051E
:1006B00019F420E030E0A9012629372948295929D1
:1006C0000BC06C147D0424F4EE24FF24870104C0C5
:1006D000630120E030E0A9018181FB01918189174C
:1006E00009F445C0882349F0D801C701821B930B48
:1006F000A40BB50B9C01AD0104C02E193F09400BA2
:10070000510B57FD04C01982DB82CA820BC081E005
:100710008983DB82CA8250954095309521953F4F61
:100720004F4F5F4F2C833D834E835F830DC0880FF7
:10073000991FAA1FBB1F8C839D83AE83BF838A81B1
:100740009B8101979B838A838C819D81AE81BF8130
:100750009C01AD0121503040404050402F3FEFEF11
:100760003E07EFEF4E07EFE35E0708F30BC0898308
:10077000DB82CA822E0D3F1D401F511F2C833D83FB
:100780004E835F8383E088832C813D814E815F812E
:1007900057FF1DC0DA01C90181709070A070B07060
:1007A0005695479537952795822B932BA42BB52BE0
:1007B0008C839D83AE83BF838A819B8101969B83BB
:1007C0008A8305C0E4E6F0E003C0FB0101C0FE013E
:1007D000CF01CDB7DEB7EEE00C94C505A0E2B0E0E6
:1007E000E4EFF3E00C94B10569837A838B839C83F7
:1007F0002D833E834F83588789E0E82EF12CEC0E41
:10080000FD1ECE010196B7010E941A058E010F5EF2
:100810001F4FCE010596B8010E941A05C701B80105
:10082000AE01475E5F4F0E94A4020E944C04A09656
:10083000E6E00C94CD05A0E2B0E0E1E2F4E00C9437
:10084000B10569837A838B839C832D833E834F8399
:1008500058878E01075F1F4FCE010196B8010E9495
:100860001A0591E1E92EF12CEC0EFD1ECE01059644
:10087000B7010E941A058A8991E089278A8BC801ED
:10088000B701AE01475E5F4F0E94A4020E944C0474
:10089000A096E6E00C94CD05EF92FF920F931F9384
:1008A000CF93DF93FC01248135814681578161819B
:1008B0008081823020F44061EFEFF0E0A3C084300B
:1008C00009F49BC0823009F492C02115310541051D
:1008D000510509F48FC00280F381E02D8FEFE238DB
:1008E000F8070CF05AC0C2E8DFEFCE1BDF0BCA31AD
:1008F000D1056CF579018A010C2E04C01695079577
:10090000F794E7940A94D2F781E090E0A0E0B0E099
:100910000C2E04C0880F991FAA1FBB1F0A94D2F780
:100920000197A109B10982239323A423B52321E0D0
:1009300030E040E050E00097A105B10519F420E057
:1009400030E0A9012E293F29402B512B03C020E084
:1009500030E0A901DA01C9018F779070A070B07002
:1009600080349105A105B10539F427FF09C0205C49
:100970003F4F4F4F5F4F04C0215C3F4F4F4F5F4F82
:10098000E1E0F0E0203080E0380780E0480780E4D4
:10099000580728F5E0E0F0E022C0E038F1056CF5FA
:1009A000E158FF4FDA01C9018F779070A070B070E5
:1009B00080349105A105B10539F427FF09C0205CF9
:1009C0003F4F4F4F5F4F04C0215C3F4F4F4F5F4F32
:1009D00057FF05C05695479537952795319687E07F
:1009E00056954795379527958A95D1F70BC0E0E046
:1009F000F0E005C0E0E0F0E005C0EFEFF0E020E05F
:100A000030E0A9018E2F879588278795942F9F77AF
:100A1000679566276795E695E22EA92FA82BFE2FEE
:100A2000F62B622F732F8A2F9F2FCDB7DEB7E6E00C
:100A30000C94CD05DC01FB012C9111963C91119792
:100A400012968C911297482F4F7750E0982F991F4C
:100A50009927991F13966C911397862F880F892BCE
:100A600090E0661F6627661F6183009739F52115A0
:100A700031054105510511F482E029C082E89FEF5C
:100A80009383828367E0220F331F441F551F6A95AB
:100A9000D1F783E0808309C0220F331F441F551F05
:100AA00082819381019793838283203080E038078D
:100AB00080E0480780E4580778F320C08F3F910515
:100AC00079F4211531054105510519F484E080833D
:100AD000089544FF03C081E0808310C010820EC0DF
:100AE0008F5790409383828383E0808387E0220F37
:100AF000331F441F551F8A95D1F7506424833583D3
:100B0000468357830895A1E21A2EAA1BBB1BFD0141
:100B10000DC0AA1FBB1FEE1FFF1FA217B307E407DC
:100B2000F50720F0A21BB30BE40BF50B661F771F34
:100B3000881F991F1A9469F7609570958095909514
:100B40009B01AC01BD01CF0108952F923F924F92BE
:100B50005F926F927F928F929F92AF92BF92CF924D
:100B6000DF92EF92FF920F931F93CF93DF93CDB756
:100B7000DEB7CA1BDB0B0FB6F894DEBF0FBECDBFCE
:100B800009942A88398848885F846E847D848C849F
:100B90009B84AA84B984C884DF80EE80FD800C81A8
:100BA0001B81AA81B981CE0FD11D0FB6F894DEBF8B
:100BB0000FBECDBFED010895EF92FF920F931F93EB
:100BC000322FF02E47FF02C0A4E101C0A4E0E42FC1
:100BD000FF27E7FDF095F7FF03C0F095E195FF4F84
:100BE0004F2D512F2E2F032FEA2E0E943B068F2DC3
:100BF000912F1F910F91FF90EF900895FB019F019E
:100C0000E8944230C4F04532B4F44A3029F497FBFA
:100C10001EF4909581959F4F642F77270E940B0AB1
:100C2000805D8A330CF0895D8193CB010097A1F739
:100C300016F45DE251931082C9010C946A08FB011D
:100C40009F01423074F0453264F4642F77270E948C
:100C50000B0A805D8A330CF0895D8193CB0100978C
:100C6000A1F71082C9010C946A089F9344D20F9097
:100C700007FCEE5F67C2A9E0B0E0E1E4F6E00C94A7
:100C8000AD056A01F22E102F0C3318F4B02EB39478
:100C900002C0ECE3BE2EAE014F5F5F4F27E00B2D8D
:100CA0000E949207298130E0A901497050704130BB
:100CB000510531F0E1FC06C0E0FE06C0E0E205C0EF
:100CC000EDE203C0EBE201C0E0E023FF37C0EE231A
:100CD00011F084E001C083E08F1518F4F81A8F2D0D
:100CE00001C080E0E4FC0BC0982FD60120E202C0D6
:100CF0002D9391509923E1F7C80ED11C80E0EE238B
:100D000019F0D601ED936D01F6013196E2FE05C0B2
:100D10009EE4D6019C9321E404C09EE6D6019C93F8
:100D200021E611962C9391833296982FDF0120E2D1
:100D300002C02D9391509923E1F73DC022FF41C09D
:100D4000EE2311F084E001C083E08F1518F4F81A47
:100D50008F2D01C080E0E4FC0BC0982FD60120E26B
:100D600002C02D9391509923E1F7C80ED11C80E069
:100D7000EE2319F0D601ED936D01F6013196E2FEF6
:100D800009C099E4D6019C939EE411969C93119717
:100D900096E407C099E6D6019C939EE611969C9333
:100DA00096E691833296982FDF0120E202C02D93C0
:100DB00091509923E1F7E80FF11D10822EEF3FEFDC
:100DC000ACC041E050E0EE2311F440E050E01816D2
:100DD000190624F4BC016F5F7F4F02C061E070E030
:100DE000640F751F112329F0412F50E04F5F5F4FB3
:100DF00002C040E050E0460F571F6F2D70E04617CD
:100E000057071CF40F2D041B01C000E0FF24A701AD
:100E100040715070E4FC0DC0E3FC0BC0602FD601A4
:100E200070E202C07D9361506623E1F7C00ED11CD1
:100E300000E0EE2319F0D601ED936D014115510547
:100E400059F4402FF60150E302C05193415044231E
:100E5000E1F7C00ED11C00E0B80EFA80A901407184
:100E6000507024FF04C0BF2DB13309F4BA941B1491
:100E70002CF4AB2DA93018F0A8E001C0A1E09C0132
:100E800097FF02C020E030E0BC016F5F7F4F621B24
:100E9000730BFE013196E60FF71F6EE2E62EBC01E2
:100EA0006A1B7109A12FB0E0AA24BB24AA1ABB0AAD
:100EB0001FEF2F3F310719F4D601ED926D01821714
:100EC00093072CF06217730714F4108101C010E32C
:100ED0002150304031962A153B0524F0D6011D9350
:100EE0006D01E6CF2817390749F4BF2DB63328F432
:100EF000B53321F44115510509F411E3F6011193BD
:100F0000802FDF0190E202C09D9381508823E1F79A
:100F1000E00FF11D108220E030E0C9012996EAE0DF
:100F20000C94C905283008F027E03327DA01990F1F
:100F3000311D87FD916000966105710539F43260BD
:100F40002E5F3D9330E32A95E1F708959F3F30F0FF
:100F500080387105610509F03C5F3C5F3D9391303D
:100F600008F08068911DDF93CF931F930F93FF923A
:100F7000EF92192F987F9695E92F96959695E90F00
:100F8000FF27E453FF4F99273327EE24FF24A701BF
:100F9000E70105900894079428F4360FE71EF81E21
:100FA000491F511D660F771F881F991F0694A1F7CF
:100FB0000590079428F4E70EF81E491F561FC11D1F
:100FC000770F881F991F661F0694A1F70590079455
:100FD00028F4F80E491F561FC71FD11D880F991FEF
:100FE000661F771F0694A1F70590079420F4490F18
:100FF000561FC71FD81F990F661F771F881F06949B
:10100000A9F784911095177041F0D695C79557951B
:101010004795F794E7941A95C1F7E2E7F0E06894F2
:101020001590159135916591959105907FE2739595
:10103000E118F10A430B560BC90BD009C0F7E10CBC
:10104000F11E431F561FC91FD01D7EF4703311F4CB
:101050008A95E6CFE894015030F0080F0AF4002793
:10106000021708F4202F2395022F7A3328F079E312
:101070007D932A95E9F710C07D932A9589F6069409
:1010800097956795379517951794E118F10A430BD3
:10109000560BC90BD00998F023957E9173957A333E
:1010A00008F070E37C932013B8F77E9170617D9314
:1010B00030F0839571E37D9370E32A95E1F7112475
:1010C000EF90FF900F911F91CF91DF91992787FDAE
:1010D00090950895DC01FC01672F71917723E1F76A
:1010E000329704C07C916D9370836291AE17BF07F5
:1010F000C8F30895CEC03FD0E8F3E894E0E0BB2702
:101100009F57F0F02AED3FE049EC06C0EE0FBB0F11
:10111000661F771F881F28F0B23A6207730784079B
:1011200028F0B25A620B730B840BE3959A9572F711
:10113000803830F49A95BB0F661F771F881FD2F74F
:1011400090489BC0EF93E0FF06C0A2EA2AED3FE083
:1011500049EC5FEB37D0BFD00F90039401FC90585F
:10116000E4E5F0E099C057FD9058440F551F59F041
:101170005F3F71F04795880F97FB991F61F09F3F84
:1011800079F087950895121613061406551FF2CFAD
:101190004695F1DF08C0161617061806991FF1CFFD
:1011A0008695710561050894089587D030F08CD03C
:1011B00020F031F49F3F11F41EF46BC00EF4E09563
:1011C000E7FB53C0E92FCFDF80F3BA17620773073D
:1011D0008407950718F071F49EF58EC00EF4E09523
:1011E0000B2EBA2FA02D0B01B90190010C01CA01E1
:1011F000A0011124FF27591B99F0593F50F4503E8C
:1012000068F11A16F040A22F232F342F4427585F7D
:10121000F3CF469537952795A795F0405395C9F795
:101220007EF41F16BA0B620B730B840BBAF091504D
:10123000A1F0FF0FBB1F661F771F881FC2F70EC0EC
:10124000BA0F621F731F841F48F4879577956795BF
:10125000B795F7959E3F08F0B3CF9395880F08F0A8
:101260009927EE0F97958795089597F99F6780E8DE
:1012700070E060E008959F3F31F0915020F4879531
:1012800077956795B795880F911D9695879597F9EE
:1012900008959FEF80EC08959F938F937F936F93B2
:1012A000FF93EF939B01AC012ED0EF91FF918ED075
:1012B0002F913F914F915F9126C000240A941616FA
:1012C000170618060906089500240A941216130634
:1012D000140605060895092E0394000C11F48823C2
:1012E00052F0BB0F40F4BF2B11F460FF04C06F5FDE
:1012F0007F4F8F4F9F4F0895E894BB27662777272E
:10130000CB0197F908950BD0E6CFD7DF28F0DCDFCB
:1013100018F0952309F0A9CFBCCF1124EECF23DF1D
:10132000A0F3959FD1F3950F50E0551F629FF001F8
:10133000729FBB27F00DB11D639FAA27F00DB11D51
:10134000AA1F649F6627B00DA11D661F829F2227DA
:10135000B00DA11D621F739FB00DA11D621F839F61
:10136000A00D611D221F749F3327A00D611D231F37
:10137000849F600D211D822F762F6A2F11249F5785
:1013800050408AF0E1F088234AF0EE0FFF1FBB1FA8
:10139000661F771F881F91505040A9F79E3F510547
:1013A00070F063CFAACF5F3FECF3983EDCF38695F5
:1013B00077956795B795F795E7959F5FC1F7FE2BF2
:1013C000880F911D9695879597F90895DF93CF9390
:1013D0001F930F93FF92EF92DF927B018C01689431
:1013E00005C0DA2EEF019BDFFE01E894A59125915F
:1013F000359145915591AEF3EF01E4DEFE01970181
:10140000A801DA9479F7DF90EF90FF900F911F9188
:10141000CF91DF910895AA1BBB1B51E107C0AA1F02
:10142000BB1FA617B70710F0A61BB70B881F991F85
:101430005A95A9F780959095BC01CD010895F8942F
:02144000FFCFDC
:0C1442002C000A00000000000000000068
:00000001FF
