:100000000C94A7000C94BC000C94BC000C94BC0095
:100010000C94BC000C94BC000C94BC000C94BC0070
:100020000C94BC000C94BC000C94BC000C94BC0060
:100030000C94BC000C94BC000C94BC000C94BC0050
:100040000C94BC000C94BC000C94BC000C94BC0040
:100050000C94BC0000407A10F35A00A0724E1809AC
:100060000010A5D4E80000E87648170000E40B541F
:10007000020000CA9A3B000000E1F50500008096EE
:100080009800000040420F000000A0860100000020
:10009000102700000000E8030000000064000000DA
:1000A00000000A00000000000100000000002C76A3
:1000B000D888DC674F0823DFC1DFAE59E1B1B796BE
:1000C000E5E3E453C63AE651997696E8E6C284261B
:1000D000EB898C9B62ED407C6FFCEFBC9C9F40F2F7
:1000E000BAA56FA5F490055A2AF75C936B6CF96773
:1000F0006DC11BFCE0E40D47FEF520E6B500D0ED38
:10010000902E0300943577050080841E080000209F
:100110004E0A000000C80C333333330F986E12833D
:100120001141EF8D2114893BE65516CFFEE6DB1811
:10013000D1844B381BF77C1D901DA4BBE4242032D6
:1001400084725E228100C9F124ECA1E53D271124CF
:100150001FBECFE5D8E0DEBFCDBF10E0A0E6B0E027
:10016000E2EEFAE002C005900D92AE36B107D9F783
:100170000E94C4000C946F050C940000869B02C082
:1001800096980895969A089580E895E20E94DA007C
:1001900080E481BB80E690E00E940C010E94BE00DA
:1001A0008FE191EAA7E081509040A040E1F700C0C4
:1001B0000000F0CF9C0140E050E084E0220F331FAC
:1001C000441F551F8A95D1F760E072E18AE790E0FD
:1001D0000E946A022150304030BD29B980B586683E
:1001E00080BD88E18AB908958BB1881F8827881F50
:1001F00008955F9BFECF8CB10895CF93DF93EC0100
:100200000E94F90089938823D9F7DF91CF9108954F
:100210005D9BFECF8CB90895EF92FF92CF93DF9351
:10022000E82EE7017E01F92EE70102C00E940801D5
:1002300089918823D9F70E940801DF91CF91FF901F
:10024000EF900895EF92FF920F931F93DF93CF9358
:10025000CDB7DEB760970FB6F894DEBF0FBECDBF47
:100260007B018E010F5F1F4FB8014AE050E00E94F2
:10027000AE02F8018E2F801B91919923D9F7082F98
:1002800004C080E20E9408010F5F802F90E08E156D
:100290009F05BCF3CE0101960E940C0160960FB63B
:1002A000F894DEBF0FBECDBFCF91DF911F910F91AC
:1002B000FF90EF900895EF92FF920F931F93DF93BB
:1002C000CF93CDB7DEB760970FB6F894DEBF0FBE01
:1002D000CDBF7E010894E11CF11C87010E948C02B5
:1002E000C7010E940C0160960FB6F894DEBF0FBEE6
:1002F000CDBFCF91DF911F910F91FF90EF900895A7
:10030000EF92FF920F931F93DF93CF93CDB7DEB79A
:1003100060970FB6F894DEBF0FBECDBF7B018E0194
:100320000F5F1F4FB8014AE050E00E94CF02F80172
:100330008E2F801B91919923D9F7082F04C080E25A
:100340000E9408010F5F802F90E08E159F05BCF37F
:10035000CE0101960E940C0160960FB6F894DEBFA4
:100360000FBECDBFCF91DF911F910F91FF90EF9006
:100370000895EF92FF920F931F93DF93CF93CDB722
:10038000DEB760970FB6F894DEBF0FBECDBF7B011E
:100390008E010F5F1F4FB8014AE050E00E94CF026C
:1003A000F8018E2F801B91919923D9F7082F04C053
:1003B00080E30E9408010F5F802F90E08E159F055B
:1003C000BCF3CE0101960E940C0160960FB6F89422
:1003D000DEBF0FBECDBFCF91DF911F910F91FF9078
:1003E000EF900895EF92FF920F931F93DF93CF93B7
:1003F000CDB7DEB761970FB6F894DEBF0FBECDBFA5
:100400007B018E010F5F1F4FB80140E150E00E9459
:10041000CF02F8018E2F801B91919923D9F7082FD5
:1004200004C080E20E9408010F5F802F90E08E15CB
:100430009F05BCF3CE0101960E940C0161960FB698
:10044000F894DEBF0FBECDBFCF91DF911F910F910A
:10045000FF90EF900895EF92FF920F931F93DF9319
:10046000CF93CDB7DEB761970FB6F894DEBF0FBE5E
:10047000CDBF7B018E010F5F1F4FB80142E050E0FE
:100480000E94CF02F8018E2F801B91919923D9F7FA
:10049000082F04C080E30E9408010F5F802F90E0C6
:1004A0008E159F05BCF3CE0101960E940C0161964A
:1004B0000FB6F894DEBF0FBECDBFCF91DF911F9175
:1004C0000F91FF90EF90089590E068E070E00E9437
:1004D0002B020895A1E21A2EAA1BBB1BFD010DC021
:1004E000AA1FBB1FEE1FFF1FA217B307E407F507E4
:1004F00020F0A21BB30BE40BF50B661F771F881FC0
:10050000991F1A9469F760957095809590959B0155
:10051000AC01BD01CF010895EF92FF920F931F939D
:10052000322FF02E47FF02C0A4E101C0A4E0E42F67
:10053000FF27E7FDF095F7FF03C0F095E195FF4F2A
:100540004F2D512F2E2F032FEA2E0E94E5028F2DC3
:10055000912F1F910F91FF90EF900895FB019F0144
:10056000E8944230C4F04532B4F44A3029F497FBA1
:100570001EF4909581959F4F642F77270E94240544
:10058000805D8A330CF0895D8193CB010097A1F7E0
:1005900016F45DE251931082C9010C941405FB011D
:1005A0009F01423074F0453264F4642F77270E9433
:1005B0002405805D8A330CF0895D8193CB0100971F
:1005C000A1F71082C9010C941405A9E0B0E0EBEE8C
:1005D000F2E00C9440056A01F22E102F0C3318F44F
:1005E000B02EB39402C0ECE3BE2EAE014F5F5F4F5E
:1005F00027E00B2D0E943C04298130E0A9014970BD
:1006000050704130510531F0E1FC06C0E0FE06C0FB
:10061000E0E205C0EDE203C0EBE201C0E0E023FF51
:1006200037C0EE2311F084E001C083E08F1518F489
:10063000F81A8F2D01C080E0E4FC0BC0982FD60182
:1006400020E202C02D9391509923E1F7C80ED11CEE
:1006500080E0EE2319F0D601ED936D01F60131969D
:10066000E2FE05C09EE4D6019C9321E404C09EE610
:10067000D6019C9321E611962C9391833296982F64
:10068000DF0120E202C02D9391509923E1F73DC094
:1006900022FF41C0EE2311F084E001C083E08F15FA
:1006A00018F4F81A8F2D01C080E0E4FC0BC0982FDD
:1006B000D60120E202C02D9391509923E1F7C80E94
:1006C000D11C80E0EE2319F0D601ED936D01F60107
:1006D0003196E2FE09C099E4D6019C939EE41196FE
:1006E0009C93119796E407C099E6D6019C939EE6E9
:1006F00011969C9396E691833296982FDF0120E223
:1007000002C02D9391509923E1F7E80FF11D10825B
:100710002EEF3FEFACC041E050E0EE2311F440E09B
:1007200050E01816190624F4BC016F5F7F4F02C019
:1007300061E070E0640F751F112329F0412F50E034
:100740004F5F5F4F02C040E050E0460F571F6F2DD4
:1007500070E0461757071CF40F2D041B01C000E082
:10076000FF24A70140715070E4FC0DC0E3FC0BC0F6
:10077000602FD60170E202C07D9361506623E1F7DD
:10078000C00ED11C00E0EE2319F0D601ED936D01EF
:100790004115510559F4402FF60150E302C0519321
:1007A00041504423E1F7C00ED11C00E0B80EFA809E
:1007B000A9014071507024FF04C0BF2DB13309F46A
:1007C000BA941B142CF4AB2DA93018F0A8E001C08A
:1007D000A1E09C0197FF02C020E030E0BC016F5F08
:1007E0007F4F621B730BFE013196E60FF71F6EE21F
:1007F000E62EBC016A1B7109A12FB0E0AA24BB241C
:10080000AA1ABB0A1FEF2F3F310719F4D601ED9248
:100810006D01821793072CF06217730714F410818F
:1008200001C010E32150304031962A153B0524F0D9
:10083000D6011D936D01E6CF2817390749F4BF2D66
:10084000B63328F4B53321F44115510509F411E309
:10085000F6011193802FDF0190E202C09D93815039
:100860008823E1F7E00FF11D108220E030E0C9019C
:100870002996EAE00C945C05283008F027E033273D
:10088000DA01990F311D87FD9160009661057105B0
:1008900039F432602E5F3D9330E32A95E1F70895F5
:1008A0009F3F30F080387105610509F03C5F3C5F87
:1008B0003D93913008F08068911DDF93CF931F9393
:1008C0000F93FF92EF92192F987F9695E92F9695A7
:1008D0009695E90FFF27E255FF4F99273327EE241E
:1008E000FF24A701E70105900894079428F4360F28
:1008F000E71EF81E491F511D660F771F881F991F9D
:100900000694A1F70590079428F4E70EF81E491FF6
:10091000561FC11D770F881F991F661F0694A1F7E8
:100920000590079428F4F80E491F561FC71FD11DC4
:10093000880F991F661F771F0694A1F705900794EB
:1009400020F4490F561FC71FD81F990F661F771F26
:10095000881F0694A9F784911095177041F0D695D9
:10096000C79557954795F794E7941A95C1F7E4E52D
:10097000F0E06894159015913591659195910590E9
:100980007FE27395E118F10A430B560BC90BD009AE
:10099000C0F7E10CF11E431F561FC91FD01D7EF486
:1009A000703311F48A95E6CFE894015030F0080FC7
:1009B0000AF40027021708F4202F2395022F7A3318
:1009C00028F079E37D932A95E9F710C07D932A9565
:1009D00089F6069497956795379517951794E118BA
:1009E000F10A430B560BC90BD00998F023957E9161
:1009F00073957A3308F070E37C932013B8F77E91F7
:100A000070617D9330F0839571E37D9370E32A9557
:100A1000E1F71124EF90FF900F911F91CF91DF919B
:100A2000992787FD90950895DC01FC01672F71914E
:100A30007723E1F7329704C07C916D9370836291C4
:100A4000AE17BF07C8F30895AA1BBB1B51E107C02F
:100A5000AA1FBB1FA617B70710F0A61BB70B881F4E
:100A6000991F5A95A9F780959095BC01CD010895DD
:100A70002F923F924F925F926F927F928F929F92AE
:100A8000AF92BF92CF92DF92EF92FF920F931F939C
:100A9000CF93DF93CDB7DEB7CA1BDB0B0FB6F8944D
:100AA000DEBF0FBECDBF09942A88398848885F848D
:100AB0006E847D848C849B84AA84B984C884DF80FE
:100AC000EE80FD800C811B81AA81B981CE0FD11DE2
:100AD0000FB6F894DEBF0FBECDBFED010895F894B8
:020AE000FFCF46
:0E0AE20048616C6C6F2057656C74210A00002F
:00000001FF
